:100000001AC091C0A3C030C02FC02EC02DC02CC0BC
:100010002BC02AC029C028C027C027C025C024C0A3
:1000200023C022C021C0DDC0ECC007C11BC129C153
:1000300044C15EC177C111241FBECFEDCDBF10E01A
:10004000A0E6B0E0E0E6F3E002C005900D92A23633
:10005000B107D9F710E0A2E6B0E001C01D92A836C2
:10006000B107E1F781D07AC1CBCF1F920F920FB6C3
:100070000F9211248F939F93AF93BF93809164004D
:1000800090916500A0916600B09167000196A11D56
:10009000B11D8093640090936500A0936600B093B7
:1000A00067008091640090916500A0916600B09116
:1000B0006700892B8A2B8B2B59F48FEF9FEFDC0184
:1000C0008093640090936500A0936600B0936700EE
:1000D000809163008823F1F080916000909161002D
:1000E00001969093610080936000809160009091F0
:1000F0006100892B31F48FEF9FEF90936100809323
:1001000060008091600090916100069710F4959ACC
:1001100001C09598BF91AF919F918F910F900FBEA5
:100120000F901F9018951F920F920FB60F921124E7
:100130008F9380916300882319F081E0809363009E
:100140008F910F900FBE0F901F9018951F920F92D6
:100150000FB60F92112410926100109260000F9060
:100160000FBE0F901F9018958E9A8D9A8C9A969A22
:10017000959A949AC09AC19AB99AC29ABA9AC39A0D
:10018000BB9ABC9A82E080BF83E083BF8CE786BFC6
:1001900081E089BF85B7826085BF8BB780648BBFE4
:1001A00085B7846085BF8BB780688BBF78941092C9
:1001B0006400109265001092660010926700109221
:1001C000630081E097E026E035E044E053E062E040
:1001D000E0916300F0E0E830F105D0F7ED5EFF4F0D
:1001E0000994C0906400D0906500E0906600F090A3
:1001F000670078E8C71673E1D706E104F10440F31D
:10020000AAC0C19AC29AC39A969AC4989498E09147
:100210006000F09161003697D8F6B099D9CFC49AB2
:10022000949A96986093630010926400109265000F
:100230001092660010926700CBCFC0906400D090FF
:100240006500E0906600F09067007EE4C7167DE0F0
:10025000D706E104F10408F4BBCFC498C2985093C8
:100260006300B6CFB09BB4CFC198969A1092640049
:100270001092650010926600109267004093630030
:10028000A7CFC0906400D0906500E0906600F09029
:10029000670079E4C71673E0D706E104F10408F4B7
:1002A00097CFC39810926400109265001092660078
:1002B00010926700309363008BCFC0906400D090A1
:1002C0006500E0906600F090670075EDC716D104F8
:1002D000E104F10408F47CCFC29A109264001092F9
:1002E000650010926600109267002093630070CF43
:1002F000C0906400D0906500E0906600F0906700C8
:1003000077E3C71671E0D706E104F10458F0C19A0B
:1003100010926400109265001092660010926700BF
:1003200090936300C0906400D0906500E0906600F8
:10033000F090670071E5C71673E0D706E104F10499
:1003400008F446CFC39A1092640010926500109290
:10035000660010926700809363003ACFF894FFCF55
:02036000060095
:00000001FF
