:100000001CC093C0A9C032C031C030C02FC02EC0A8
:100010002DC02CC02BC02AC029C029C027C026C093
:1000200025C024C023C0E6C0F5C008C115C129C140
:100030002DC13BC156C171C18AC111241FBECFED74
:10004000CDBF10E0A0E6B0E0EAE8F3E002C0059022
:100050000D92A236B107D9F720E0A2E6B0E001C0C8
:100060001D92A836B207E1F785D08DC1C9CF1F9286
:100070000F920FB60F9211248F939F93AF93BF935C
:100080008091640090916500A0916600B091670036
:100090000196A11DB11D8093640090936500A0930B
:1000A0006600B09367008091640090916500A09114
:1000B0006600B0916700892B8A2B8B2B59F48FEF48
:1000C0009FEFDC018093640090936500A09366002D
:1000D000B0936700809163008823F1F08091600005
:1000E00090916100019690936100809360008091EF
:1000F000600090916100892B31F48FEF9FEF909316
:10010000610080936000809160009091610006978B
:1001100010F4959A01C09598BF91AF919F918F91DE
:100120000F900FBE0F901F9018951F920F920FB651
:100130000F9211248F9380916300853021F080917C
:100140006300833019F481E0809363008F910F90F6
:100150000FBE0F901F9018951F920F920FB60F921F
:10016000112410926100109260000F900FBE0F904A
:100170001F9018958E9A8D9A8C9A969A959A949A21
:10018000C09AC19AB99AC29ABA9AC39ABB9ABC9AAF
:10019000C49A82E080BF83E083BF8CE786BF81E0A2
:1001A00089BF85B7826085BF8BB780648BBF85B7F9
:1001B000846085BF8BB780688BBF78941092640091
:1001C0001092650010926600109267001092630012
:1001D00081E099E028E037E046E055E064E073E034
:1001E000A2E0E0916300F0E0EA30F105D0F7ED5EC7
:1001F000FF4F0994C0906400D0906500E0906600C5
:10020000F0906700E8E8CE16E3E1DE06E104F104D1
:1002100040F3B6C0C19AC29AC39A969AC498949869
:10022000E0916000F09161003697D8F6B099D9CF8F
:10023000C498949A9698A0936300D3CFB09BD1CFE3
:10024000C49A70936300109264001092650010923B
:10025000660010926700C5CFC0906400D090650022
:10026000E0906600F0906700E7EECE16EDE0DE0667
:10027000E104F10408F4B5CFC498C2986093630018
:10028000B0CFB099AECF50936300ABCFB09BA9CFA6
:10029000C198969A109264001092650010926600C0
:1002A00010926700409363009CCFC0906400D09090
:1002B0006500E0906600F0906700E2E8CE16E6E0A8
:1002C000DE06E104F10408F48CCFC39810926400B8
:1002D00010926500109266001092670030936300E0
:1002E00080CFC0906400D0906500E0906600F090F0
:1002F0006700E3EACE16E1E0DE06E104F10408F46B
:1003000070CFC29A1092640010926500109266003D
:10031000109267002093630064CFC0906400D09077
:100320006500E0906600F0906700E6E7CE16E2E038
:10033000DE06E104F10458F0C19A109264001092B4
:100340006500109266001092670090936300C09061
:100350006400D0906500E0906600F0906700E9E9E5
:10036000CE16E6E0DE06E104F10408F43ACFC39AC3
:10037000109264001092650010926600109267005F
:0A038000809363002ECFF894FFCFA6
:02038A0006006B
:00000001FF
